{
    "txid": "e7a376dbf4bad086d4438ae47b84d18ca3b4f5fe85feea9ef09e227212128a60",
    "hash": "e7a376dbf4bad086d4438ae47b84d18ca3b4f5fe85feea9ef09e227212128a60",
    "version": 2,
    "size": 99,
    "vsize": 99,
    "weight": 396,
    "locktime": 0,
    "lockheight": 0,
    "vin": [
        {
            "txid": "5897de6bd6027a475eadd57019d4e6872c396d0716c4875a5f1a6fcfdf385c1f",
            "vout": 0,
            "scriptSig": {
                "asm": "",
                "hex": ""
            },
            "sequence": 4294967295
        }
    ],
    "vout": [
        {
            "value": 0.18000000,
            "n": 0,
            "scriptPubKey": {
                "asm": "OP_DUP OP_HASH160 1fc11f39be1729bf973a7ab6a615ca4729d64574 OP_EQUALVERIFY OP_CHECKSIG",
                "desc": "addr(13tuJJDR2RgArmgfv6JScSdreahzgc4T6o)#ztmwxg4c",
                "hex": "76a9141fc11f39be1729bf973a7ab6a615ca4729d6457488ac",
                "address": "13tuJJDR2RgArmgfv6JScSdreahzgc4T6o",
                "type": "pubkeyhash"
            }
        },
        {
            "value": 0.00000000,
            "n": 1,
            "scriptPubKey": {
                "asm": "OP_RETURN",
                "desc": "raw(6a)#zf2avljj",
                "hex": "6a",
                "type": "unspendable"
            }
        }
    ],
    "hex": "02000000011f5c38dfcf6f1a5f5a87c416076d392c87e6d41970d5ad5e477a02d66bde97580000000000ffffffff0280a81201000000001976a9141fc11f39be1729bf973a7ab6a615ca4729d6457488ac0000000000000000016a0000000000000000"
}
