{
    "txid": "5790771302ad80e9042797f7a7558380a7e557551478862cf65a1154a688b6d8",
    "hash": "5790771302ad80e9042797f7a7558380a7e557551478862cf65a1154a688b6d8",
    "version": 1,
    "size": 128,
    "vsize": 128,
    "weight": 512,
    "locktime": 0,
    "lockheight": 0,
    "vin": [
    ],
    "vout": [
        {
            "value": 1.00000000,
            "n": 0,
            "scriptPubKey": {
                "asm": "2 02a5613bd857b7048924264d1e70e08fb2a7e6527d32b7ab1bb993ac59964ff397 021ac43c7ff740014c3b33737ede99c967e4764553d1b2b83db77c83b8715fa72d 02df2089105c77f266fa11a9d33f05c735234075f2e8780824c6b709415f9fb485 3 OP_CHECKMULTISIG",
                "desc": "multi(2,02a5613bd857b7048924264d1e70e08fb2a7e6527d32b7ab1bb993ac59964ff397,021ac43c7ff740014c3b33737ede99c967e4764553d1b2b83db77c83b8715fa72d,02df2089105c77f266fa11a9d33f05c735234075f2e8780824c6b709415f9fb485)#8s88p9pl",
                "hex": "522102a5613bd857b7048924264d1e70e08fb2a7e6527d32b7ab1bb993ac59964ff39721021ac43c7ff740014c3b33737ede99c967e4764553d1b2b83db77c83b8715fa72d2102df2089105c77f266fa11a9d33f05c735234075f2e8780824c6b709415f9fb48553ae",
                "type": "multisig"
            }
        }
    ],
    "hex": "01000000000100e1f5050000000069522102a5613bd857b7048924264d1e70e08fb2a7e6527d32b7ab1bb993ac59964ff39721021ac43c7ff740014c3b33737ede99c967e4764553d1b2b83db77c83b8715fa72d2102df2089105c77f266fa11a9d33f05c735234075f2e8780824c6b709415f9fb48553ae0000000000000000"
}
