{
    "txid": "717f645fdb505a53aa995f1f3ea283ad9663dfe4cfb678d9b6731eea971b45b6",
    "hash": "717f645fdb505a53aa995f1f3ea283ad9663dfe4cfb678d9b6731eea971b45b6",
    "version": 1,
    "locktime": 0,
    "lockheight": 0,
    "vin": [
        {
            "txid": "4d49a71ec9da436f71ec4ee231d04f292a29cd316f598bb7068feccabdc59485",
            "vout": 0,
            "scriptSig": {
                "asm": "3045022100a58d341465af595a45b81d8c1d3ab2d9fc3c575fa0817beda090ec8ccd22496c0220035938e737896f46d48bd489540df3a8ef92f2d8be5aaa183dcf7078f9572137[ALL] 0479be667ef9dcbbac55a06295ce870b07029bfcdb2dce28d959f2815b16f81798483ada7726a3c4655da4fbfc0e1108a8fd17b448a68554199c47d08ffb10d4b8",
                "hex": "483045022100a58d341465af595a45b81d8c1d3ab2d9fc3c575fa0817beda090ec8ccd22496c0220035938e737896f46d48bd489540df3a8ef92f2d8be5aaa183dcf7078f957213701410479be667ef9dcbbac55a06295ce870b07029bfcdb2dce28d959f2815b16f81798483ada7726a3c4655da4fbfc0e1108a8fd17b448a68554199c47d08ffb10d4b8"
            },
            "sequence": 4294967295
        }
    ],
    "vout": [
        {
            "value": 0.001,
            "n": 0,
            "scriptPubKey": {
                "asm": "OP_DUP OP_HASH160 5834479edbbe0539b31ffd3a8f8ebadc2165ed01 OP_EQUALVERIFY OP_CHECKSIG",
                "hex": "76a9145834479edbbe0539b31ffd3a8f8ebadc2165ed0188ac",
                "reqSigs": 1,
                "type": "pubkeyhash",
                "addresses": [
                    "193P6LtvS4nCnkDvM9uXn1gsSRqh4aDAz7"
                ]
            }
        }
    ],
    "hex": "01000000018594c5bdcaec8f06b78b596f31cd292a294fd031e24eec716f43dac91ea7494d000000008b483045022100a58d341465af595a45b81d8c1d3ab2d9fc3c575fa0817beda090ec8ccd22496c0220035938e737896f46d48bd489540df3a8ef92f2d8be5aaa183dcf7078f957213701410479be667ef9dcbbac55a06295ce870b07029bfcdb2dce28d959f2815b16f81798483ada7726a3c4655da4fbfc0e1108a8fd17b448a68554199c47d08ffb10d4b8ffffffff01a0860100000000001976a9145834479edbbe0539b31ffd3a8f8ebadc2165ed0188ac0000000000000000"
}
