{
    "txid": "23abd3f4d6a4a1e8ed1b00ae4398347082751418642a4826380c52cccc148f79",
    "hash": "23abd3f4d6a4a1e8ed1b00ae4398347082751418642a4826380c52cccc148f79",
    "version": 1,
    "locktime": 0,
    "vin": [
        {
            "txid": "5897de6bd6027a475eadd57019d4e6872c396d0716c4875a5f1a6fcfdf385c1f",
            "vout": 0,
            "scriptSig": {
                "asm": "",
                "hex": ""
            },
            "sequence": 4294967295
        }
    ],
    "vout": [
        {
            "value": 0.18,
            "n": 0,
            "scriptPubKey": {
                "asm": "OP_DUP OP_HASH160 1fc11f39be1729bf973a7ab6a615ca4729d64574 OP_EQUALVERIFY OP_CHECKSIG",
                "hex": "76a9141fc11f39be1729bf973a7ab6a615ca4729d6457488ac",
                "reqSigs": 1,
                "type": "pubkeyhash",
                "addresses": [
                    "13tuJJDR2RgArmgfv6JScSdreahzgc4T6o"
                ]
            }
        }, 
        {
            "value": 4.00,
            "n": 1,
            "scriptPubKey": {
                "asm": "OP_RETURN",
                "hex": "6a",
                "type": "unspendable"
            }
        }
    ],
    "hex": "01000000011f5c38dfcf6f1a5f5a87c416076d392c87e6d41970d5ad5e477a02d66bde97580000000000ffffffff0280a81201000000001976a9141fc11f39be1729bf973a7ab6a615ca4729d6457488ac0084d71700000000016a00000000"
}
